:08000000803102288731FD2F39
:100F8C00F030F000700821008F05F030F000700890
:100F9C008D0522008F010F148F140F158F150F1252
:100FAC000D108D100D118D110B30F1002630F0004D
:100FBC005E30890BDF2FF00BDF2FF10BDF2F2200C0
:100FCC000F108F100F118F110F160D148D140D158E
:100FDC008D150B30F1002630F0005E30890BF42FAC
:100FEC00F00BF42FF10BF42FCF2F803102282000BF
:040FFC008731C62F44
:020000040001F9
:08000000FF3FFF3FFF3FFF3F00
:04000E00EA3FFB1EAC
:00000001FF
