:08000000803102288731FD2F39
:100F5E00F101F2010B1DB42FB52FB12F0B1106307D
:100F6E00200095000130F1070030F23D7208803A02
:100F7E00F00083307002031DC62FE8307102031C8F
:100F8E00C92FCA2FB12F0800F030F30073082100CB
:100F9E008F05F030F30073088D0515131512951398
:100FAE009512951115109514151106302000950007
:100FBE0022008F010F148F140F158F150F120D10A5
:100FCE008D100D118D118731AF27873122000F1033
:100FDE008F100F118F110F160D148D140D158D15F9
:100FEE008731AF278731DF2F8031022820008731EC
:020FFE00CB2FF7
:020000040001F9
:08000000FF3FFF3FFF3FFF3F00
:04000E00EA3FFB1EAC
:00000001FF
