:08000000803102288731FD2F39
:100F3400F101F20120001A081B06031DA22FA32FA2
:100F44009C2F9110F9309B000130F1070030F23DE5
:100F54007208803AF00080307002031DB32F7D3098
:100F64007102031CB62FB72F9C2F0800F030F3003A
:100F7400730821008F05F030F30073088D050730E6
:100F840020009C00F9309B000230910022008F0168
:100F94000F1487319A27873122000F108F1487315D
:100FA4009A27873122008F100F1587319A278731AE
:100FB40022000F118F1587319A27873122008F1154
:100FC4000D1487319A27873122000D108D14873133
:100FD4009A27873122008D100D1587319A27873182
:100FE40022000D118D1587319A27873122008D112A
:0C0FF400C82F8031022820008731B82F60
:020000040001F9
:08000000FF3FFF3FFF3FFF3F00
:04000E00EA3FFB1EAC
:00000001FF
