:08000000803102288731FD2F39
:100E2C00F601F11F1A2F1B2F222FF009F109F00ADE
:100E3C000319F10AF601F60AF31F252F262F2F2F7F
:100E4C00F209F309F20A0319F30A0130F4007408E9
:100E5C00F606F701F801700871040319362F372FC5
:100E6C00662FF501F50A432F0130F035F10D890B92
:100E7C003B2F0130F4007408F507F11F462F472F64
:100E8C003A2F0130F735F80D890B482F7108730292
:100E9C00031D522F70087202031C552F562F5B2F07
:100EAC007008F2027108F33B77140130F136F00C44
:100EBC00890B5C2F0130F502031D652F662F472F20
:100ECC00760803196A2F6B2F702FF709F809F70AA8
:100EDC000319F80A7808F1007708F00008002100DF
:100EEC009E171E088F3920389E00FC309E058330DB
:100EFC009D051D148F0120008F0121008D01200004
:100F0C008D0121009D149D188C2F8D2F892F1C086D
:100F1C002000A10021001B082000A0002108803A1D
:100F2C00F90080307902031D9D2F553020020318E3
:100F3C00A02FA12FA52F013020008F00852F20007E
:100F4C002108803AF90083307902031DAF2FAC30B1
:100F5C002002031CB22FB32FB82F20008F0180303A
:100F6C008D00872F0030F0000430F10020002108A4
:100F7C00FA002008F900F935FA0DF935FA0DF935B2
:100F8C00FA0D7908F2007A08F300873116278731B9
:100F9C0071082000A3007008A2002308803AF90011
:100FAC0080307902031DDC2F05302202031CDF2F59
:100FBC00E02FEE2F0130F90020002208FB3E890AB9
:100FCC00E82FF935890BE72F79088D008F01872FD2
:100FDC000130F90020002208FF3E890AF62FF9356E
:100FEC00890BF52F79088F00852F8031022820007E
:040FFC008731752F95
:020000040001F9
:08000000FF3FFF3FFF3FFF3F00
:04000E00EA3FFB1EAC
:00000001FF
